{
  "contractName": "Areth",
  "abi": [
    {
      "constant": true,
      "inputs": [
        {
          "name": "",
          "type": "address"
        }
      ],
      "name": "addressToUserId",
      "outputs": [
        {
          "name": "",
          "type": "uint256"
        }
      ],
      "payable": false,
      "stateMutability": "view",
      "type": "function"
    },
    {
      "inputs": [],
      "payable": false,
      "stateMutability": "nonpayable",
      "type": "constructor"
    },
    {
      "constant": false,
      "inputs": [
        {
          "name": "_name",
          "type": "string"
        }
      ],
      "name": "createCompany",
      "outputs": [],
      "payable": false,
      "stateMutability": "nonpayable",
      "type": "function"
    },
    {
      "constant": false,
      "inputs": [
        {
          "name": "_movie_url",
          "type": "string"
        },
        {
          "name": "_lat",
          "type": "int256"
        },
        {
          "name": "_lng",
          "type": "int256"
        },
        {
          "name": "_capacity",
          "type": "uint256"
        },
        {
          "name": "unit_price",
          "type": "uint256"
        }
      ],
      "name": "createAdvertisement",
      "outputs": [],
      "payable": true,
      "stateMutability": "payable",
      "type": "function"
    },
    {
      "constant": false,
      "inputs": [
        {
          "name": "user_address",
          "type": "address"
        }
      ],
      "name": "createUser",
      "outputs": [
        {
          "name": "id",
          "type": "uint256"
        }
      ],
      "payable": false,
      "stateMutability": "nonpayable",
      "type": "function"
    },
    {
      "constant": true,
      "inputs": [
        {
          "name": "_id",
          "type": "uint256"
        }
      ],
      "name": "showCompay",
      "outputs": [
        {
          "name": "name",
          "type": "string"
        }
      ],
      "payable": false,
      "stateMutability": "view",
      "type": "function"
    },
    {
      "constant": true,
      "inputs": [
        {
          "name": "_id",
          "type": "uint256"
        },
        {
          "name": "user_address",
          "type": "address"
        }
      ],
      "name": "showAdvertisement",
      "outputs": [
        {
          "name": "id",
          "type": "uint256"
        },
        {
          "name": "movieUrl",
          "type": "string"
        },
        {
          "name": "amount",
          "type": "uint256"
        },
        {
          "name": "capacity",
          "type": "uint256"
        },
        {
          "name": "unit_price",
          "type": "uint256"
        },
        {
          "name": "lat",
          "type": "int256"
        },
        {
          "name": "lng",
          "type": "int256"
        }
      ],
      "payable": false,
      "stateMutability": "view",
      "type": "function"
    },
    {
      "constant": false,
      "inputs": [],
      "name": "getReward",
      "outputs": [],
      "payable": true,
      "stateMutability": "payable",
      "type": "function"
    }
  ],
  "bytecode": "0x608060405234801561001057600080fd5b50600060018190555060006003819055506001600581905550620186a0600760007363683ccd69aa99e88b37d126bb3cd312fc0ada5773ffffffffffffffffffffffffffffffffffffffff16815260200190815260200160002081905550610c588061007d6000396000f300608060405260043610610083576000357c0100000000000000000000000000000000000000000000000000000000900463ffffffff1680633d18b9121461008857806342302b8f14610092578063808e5cb5146101825780638450a0a814610228578063b5ffbbcc146102ac578063cdd8761814610303578063fd7f611e1461035a575b600080fd5b6100906103c3565b005b34801561009e57600080fd5b506100dd60048036038101908080359060200190929190803573ffffffffffffffffffffffffffffffffffffffff16906020019092919050505061048f565b6040518088815260200180602001878152602001868152602001858152602001848152602001838152602001828103825288818151815260200191508051906020019080838360005b83811015610141578082015181840152602081019050610126565b50505050905090810190601f16801561016e5780820380516001836020036101000a031916815260200191505b509850505050505050505060405180910390f35b34801561018e57600080fd5b506101ad6004803603810190808035906020019092919050505061063e565b6040518080602001828103825283818151815260200191508051906020019080838360005b838110156101ed5780820151818401526020810190506101d2565b50505050905090810190601f16801561021a5780820380516001836020036101000a031916815260200191505b509250505060405180910390f35b6102aa600480360381019080803590602001908201803590602001908080601f016020809104026020016040519081016040528093929190818152602001838380828437820191505050505050919291929080359060200190929190803590602001909291908035906020019092919080359060200190929190505050610782565b005b3480156102b857600080fd5b506102ed600480360381019080803573ffffffffffffffffffffffffffffffffffffffff169060200190929190505050610866565b6040518082815260200191505060405180910390f35b34801561030f57600080fd5b50610344600480360381019080803573ffffffffffffffffffffffffffffffffffffffff16906020019092919050505061087e565b6040518082815260200191505060405180910390f35b34801561036657600080fd5b506103c1600480360381019080803590602001908201803590602001908080601f01602080910402602001604051908101604052809392919081815260200183838082843782019150505050505091929192905050506109ee565b005b6000600760003373ffffffffffffffffffffffffffffffffffffffff1673ffffffffffffffffffffffffffffffffffffffff1681526020019081526020016000205490506000600760003373ffffffffffffffffffffffffffffffffffffffff1673ffffffffffffffffffffffffffffffffffffffff168152602001908152602001600020819055503373ffffffffffffffffffffffffffffffffffffffff166108fc829081150290604051600060405180830381858888f19350505050151561048c57600080fd5b50565b6000606060008060008060006104a3610ae1565b60028a8154811015156104b257fe5b906000526020600020906007020160e0604051908101604052908160008201548152602001600182018054600181600116156101000203166002900480601f01602080910402602001604051908101604052809291908181526020018280546001816001161561010002031660029004801561056f5780601f106105445761010080835404028352916020019161056f565b820191906000526020600020905b81548152906001019060200180831161055257829003601f168201915b505050505081526020016002820154815260200160038201548152602001600482015481526020016005820154815260200160068201548152505090508060800151600760008b73ffffffffffffffffffffffffffffffffffffffff1673ffffffffffffffffffffffffffffffffffffffff16815260200190815260200160002060008282540192505081905550806000015181602001518260400151836060015184608001518560a001518660c0015185955097509750975097509750975097505092959891949750929550565b6060610648610b1f565b60008381548110151561065757fe5b906000526020600020906003020160606040519081016040529081600082015481526020016001820160009054906101000a900473ffffffffffffffffffffffffffffffffffffffff1673ffffffffffffffffffffffffffffffffffffffff1673ffffffffffffffffffffffffffffffffffffffff168152602001600282018054600181600116156101000203166002900480601f01602080910402602001604051908101604052809291908181526020018280546001816001161561010002031660029004801561076a5780601f1061073f5761010080835404028352916020019161076a565b820191906000526020600020905b81548152906001019060200180831161074d57829003601f168201915b50505050508152505090508060400151915050919050565b61078a610ae1565b60e060405190810160405280600354815260200187815260200134815260200184815260200183815260200186815260200185815250905060028190806001815401808255809150509060018203906000526020600020906007020160009091929091909150600082015181600001556020820151816001019080519060200190610816929190610b57565b5060408201518160020155606082015181600301556080820151816004015560a0820151816005015560c08201518160060155505050600360008154809291906001019190505550505050505050565b60066020528060005260406000206000915090505481565b6000610888610bd7565b826000600660008373ffffffffffffffffffffffffffffffffffffffff1673ffffffffffffffffffffffffffffffffffffffff168152602001908152602001600020541415156108d757600080fd5b604080519081016040528060055481526020018573ffffffffffffffffffffffffffffffffffffffff168152509150600482908060018154018082558091505090600182039060005260206000209060020201600090919290919091506000820151816000015560208201518160010160006101000a81548173ffffffffffffffffffffffffffffffffffffffff021916908373ffffffffffffffffffffffffffffffffffffffff160217905550505050600554600660008673ffffffffffffffffffffffffffffffffffffffff1673ffffffffffffffffffffffffffffffffffffffff16815260200190815260200160002081905550600560008154809291906001019190505550816000015192505050919050565b6109f6610b1f565b60606040519081016040528060015481526020013373ffffffffffffffffffffffffffffffffffffffff168152602001838152509050600081908060018154018082558091505090600182039060005260206000209060030201600090919290919091506000820151816000015560208201518160010160006101000a81548173ffffffffffffffffffffffffffffffffffffffff021916908373ffffffffffffffffffffffffffffffffffffffff1602179055506040820151816002019080519060200190610ac7929190610b57565b505050506001600081548092919060010191905055505050565b60e060405190810160405280600081526020016060815260200160008152602001600081526020016000815260200160008152602001600081525090565b60606040519081016040528060008152602001600073ffffffffffffffffffffffffffffffffffffffff168152602001606081525090565b828054600181600116156101000203166002900490600052602060002090601f016020900481019282601f10610b9857805160ff1916838001178555610bc6565b82800160010185558215610bc6579182015b82811115610bc5578251825591602001919060010190610baa565b5b509050610bd39190610c07565b5090565b604080519081016040528060008152602001600073ffffffffffffffffffffffffffffffffffffffff1681525090565b610c2991905b80821115610c25576000816000905550600101610c0d565b5090565b905600a165627a7a723058205b41608a583b1e258824689373b2664ec175086b3ff2cc8a722e84ed82a673630029",
  "source": "pragma solidity ^0.4.24;\n\ncontract Areth {\n    struct Company {\n        uint id;\n        address owner;\n        string name;\n    }\n    Company[] companies;\n    uint companyCount;\n\n    struct Advertisement{\n        uint id;\n        string movieUrl;\n        uint amount;\n        uint capacity;\n        uint unit_price;\n        int lat;\n        int lng;\n    }\n    Advertisement[] advertisements;\n    uint advertisementCount;\n\n    struct User{\n        uint id;\n        address user_address;\n    }\n    User[] users;\n    uint userCount;\n    mapping (address => uint) public addressToUserId;\n    mapping (address => uint) pendingWithdrawals;\n\n    modifier requireBeforeCreateUser(address _user_address){\n        require(addressToUserId[_user_address] == 0);\n        _;\n    }\n\n    function Areth() public{\n        companyCount = 0;\n        advertisementCount = 0;\n        userCount = 1;\n        pendingWithdrawals[0x63683ccd69aa99e88b37d126bb3cd312fc0ada57] = 100000;\n    }\n\n    function createCompany(string _name){\n        Company memory company = Company({\n           id: companyCount,\n           name: _name,\n           owner: msg.sender\n        });\n        companies.push(company);\n        companyCount++;\n    }\n\n    /* 広告を作成 */\n    /* 引数：映像のURL, 緯度経度、報酬が受け取れるユーザー数、一人あたりに渡す広告報酬額 */\n    function createAdvertisement(string _movie_url, int _lat, int _lng, uint _capacity, uint unit_price) payable{\n        Advertisement memory advertisement = Advertisement({\n            id: advertisementCount,\n            movieUrl: _movie_url,\n            amount: msg.value,\n            unit_price: unit_price,\n            capacity: _capacity,\n            lat: _lat,\n            lng: _lng\n        });\n        advertisements.push(advertisement);\n        advertisementCount++;\n    }\n\n    /* Uportで登録したユーザーをコントラクトにも紐付ける */\n    function createUser(address user_address) public requireBeforeCreateUser(user_address) returns(uint id){\n        User memory user = User({\n            id: userCount,\n            user_address: user_address\n        });\n        users.push(user);\n        addressToUserId[user_address] = userCount;\n        userCount++;\n        return user.id;\n    }\n\n    function showCompay(uint _id) public view returns(string name){\n        Company memory company = companies[_id];\n        return company.name;\n    }\n\n    /* 広告を表示して、ユーザーに広告報酬をチャージ */\n    function showAdvertisement(uint _id, address user_address) public view\n    returns(\n      uint id,\n      string movieUrl,\n      uint amount,\n      uint capacity,\n      uint unit_price,\n      int lat,\n      int lng\n    ){\n        Advertisement memory advertisement = advertisements[_id];\n        pendingWithdrawals[user_address] += advertisement.unit_price;\n        return (\n          advertisement.id,\n          advertisement.movieUrl,\n          advertisement.amount,\n          advertisement.capacity,\n          advertisement.unit_price,\n          advertisement.lat,\n          advertisement.lng\n        );\n    }\n\n    /* 広告を見た人が報酬を受け取る */\n    function getReward() public payable{\n        /* Advertisement storage advertisement = advertisements[_ad_id]; */\n        uint send_amount = pendingWithdrawals[msg.sender];\n        pendingWithdrawals[msg.sender] = 0;\n        /* advertisement.amount = advertisement.amount - send_amount; */\n        if(!msg.sender.send(send_amount)) {\n            revert();\n        }\n    }\n\n}\n",
  "sourcePath": "/Users/Oyana/workspace/project/eth_hack_team08/vue/contracts/ARETH.sol",
  "compiler": {
    "name": "solc",
    "version": "0.4.24+commit.e67f0147.Emscripten.clang"
  },
  "schemaVersion": "2.0.1",
  "updatedAt": "2018-07-22T04:21:29.168Z"
}