{
  "contractName": "MeetMe",
  "abi": [
    {
      "constant": true,
      "inputs": [
        {
          "name": "",
          "type": "address"
        }
      ],
      "name": "userToAppointmentCount",
      "outputs": [
        {
          "name": "",
          "type": "uint256"
        }
      ],
      "payable": false,
      "stateMutability": "view",
      "type": "function"
    },
    {
      "constant": true,
      "inputs": [
        {
          "name": "",
          "type": "address"
        },
        {
          "name": "",
          "type": "uint256"
        }
      ],
      "name": "userAcheivedToAppointment",
      "outputs": [
        {
          "name": "",
          "type": "bool"
        }
      ],
      "payable": false,
      "stateMutability": "view",
      "type": "function"
    },
    {
      "constant": true,
      "inputs": [
        {
          "name": "",
          "type": "address"
        },
        {
          "name": "",
          "type": "uint256"
        }
      ],
      "name": "userToAppointmentId",
      "outputs": [
        {
          "name": "",
          "type": "uint256"
        }
      ],
      "payable": false,
      "stateMutability": "view",
      "type": "function"
    },
    {
      "constant": true,
      "inputs": [
        {
          "name": "",
          "type": "address"
        },
        {
          "name": "",
          "type": "uint256"
        }
      ],
      "name": "userBetToAppointment",
      "outputs": [
        {
          "name": "",
          "type": "uint256"
        }
      ],
      "payable": false,
      "stateMutability": "view",
      "type": "function"
    },
    {
      "inputs": [],
      "payable": false,
      "stateMutability": "nonpayable",
      "type": "constructor"
    },
    {
      "constant": false,
      "inputs": [],
      "name": "checkTime",
      "outputs": [
        {
          "name": "_now",
          "type": "uint256"
        }
      ],
      "payable": false,
      "stateMutability": "nonpayable",
      "type": "function"
    },
    {
      "constant": false,
      "inputs": [],
      "name": "checkFutureTime",
      "outputs": [
        {
          "name": "_tomorrow",
          "type": "uint256"
        }
      ],
      "payable": false,
      "stateMutability": "nonpayable",
      "type": "function"
    },
    {
      "constant": false,
      "inputs": [
        {
          "name": "_id",
          "type": "uint256"
        }
      ],
      "name": "changeDeadLine",
      "outputs": [],
      "payable": false,
      "stateMutability": "nonpayable",
      "type": "function"
    },
    {
      "constant": false,
      "inputs": [
        {
          "name": "_meeting_time",
          "type": "uint256"
        },
        {
          "name": "_lat",
          "type": "int256"
        },
        {
          "name": "_lng",
          "type": "int256"
        }
      ],
      "name": "createAppointment",
      "outputs": [],
      "payable": true,
      "stateMutability": "payable",
      "type": "function"
    },
    {
      "constant": true,
      "inputs": [
        {
          "name": "_id",
          "type": "uint256"
        }
      ],
      "name": "getAppointment",
      "outputs": [
        {
          "name": "id",
          "type": "uint256"
        },
        {
          "name": "owner",
          "type": "address"
        },
        {
          "name": "meeting_time",
          "type": "uint256"
        },
        {
          "name": "etherAmount",
          "type": "uint256"
        },
        {
          "name": "pricing",
          "type": "uint256"
        },
        {
          "name": "finished",
          "type": "bool"
        },
        {
          "name": "lat",
          "type": "int256"
        },
        {
          "name": "lng",
          "type": "int256"
        }
      ],
      "payable": false,
      "stateMutability": "view",
      "type": "function"
    },
    {
      "constant": true,
      "inputs": [
        {
          "name": "_count",
          "type": "uint256"
        }
      ],
      "name": "getMyLastApointment",
      "outputs": [
        {
          "name": "id",
          "type": "uint256"
        }
      ],
      "payable": false,
      "stateMutability": "view",
      "type": "function"
    },
    {
      "constant": false,
      "inputs": [
        {
          "name": "_id",
          "type": "uint256"
        }
      ],
      "name": "betToAppointment",
      "outputs": [],
      "payable": true,
      "stateMutability": "payable",
      "type": "function"
    },
    {
      "constant": false,
      "inputs": [
        {
          "name": "_id",
          "type": "uint256"
        }
      ],
      "name": "checkBetToAppointment",
      "outputs": [
        {
          "name": "",
          "type": "uint256"
        }
      ],
      "payable": false,
      "stateMutability": "nonpayable",
      "type": "function"
    },
    {
      "constant": false,
      "inputs": [
        {
          "name": "_id",
          "type": "uint256"
        },
        {
          "name": "_lat",
          "type": "int256"
        },
        {
          "name": "_lng",
          "type": "int256"
        }
      ],
      "name": "setAchievedToAppointment",
      "outputs": [],
      "payable": false,
      "stateMutability": "nonpayable",
      "type": "function"
    },
    {
      "constant": false,
      "inputs": [
        {
          "name": "_id",
          "type": "uint256"
        }
      ],
      "name": "witdrawBet",
      "outputs": [],
      "payable": false,
      "stateMutability": "nonpayable",
      "type": "function"
    },
    {
      "constant": true,
      "inputs": [],
      "name": "checkMyAddress",
      "outputs": [
        {
          "name": "",
          "type": "address"
        }
      ],
      "payable": false,
      "stateMutability": "view",
      "type": "function"
    }
  ],
  "bytecode": "0x6060604052341561000f57600080fd5b600060018190555061125b806100266000396000f3006060604052600436106100db576000357c0100000000000000000000000000000000000000000000000000000000900463ffffffff1680630d943da2146100e0578063557db808146101785780636709d8a5146101ad5780636e33e454146101d057806375084a8c146102075780637ac8d384146102305780638ed5fab91461027d578063a18bf1e914610295578063b4720fbc146102ea578063b65cac051461030d578063c261684c14610367578063dfd5507c146103bd578063e0c6190d14610413578063eabec8761461043c578063f1b31b0314610466575b600080fd5b34156100eb57600080fd5b610101600480803590602001909190505061049d565b604051808981526020018873ffffffffffffffffffffffffffffffffffffffff1673ffffffffffffffffffffffffffffffffffffffff168152602001878152602001868152602001858152602001841515151581526020018381526020018281526020019850505050505050505060405180910390f35b341561018357600080fd5b6101ab60048080359060200190919080359060200190919080359060200190919050506105ce565b005b34156101b857600080fd5b6101ce600480803590602001909190505061083f565b005b34156101db57600080fd5b6101f160048080359060200190919050506108e1565b6040518082815260200191505060405180910390f35b341561021257600080fd5b61021a61093b565b6040518082815260200191505060405180910390f35b341561023b57600080fd5b610267600480803573ffffffffffffffffffffffffffffffffffffffff16906020019091905050610953565b6040518082815260200191505060405180910390f35b610293600480803590602001909190505061096b565b005b34156102a057600080fd5b6102a8610a8d565b604051808273ffffffffffffffffffffffffffffffffffffffff1673ffffffffffffffffffffffffffffffffffffffff16815260200191505060405180910390f35b34156102f557600080fd5b61030b6004808035906020019091905050610a9a565b005b341561031857600080fd5b61034d600480803573ffffffffffffffffffffffffffffffffffffffff16906020019091908035906020019091905050610d4f565b604051808215151515815260200191505060405180910390f35b341561037257600080fd5b6103a7600480803573ffffffffffffffffffffffffffffffffffffffff16906020019091908035906020019091905050610d7e565b6040518082815260200191505060405180910390f35b34156103c857600080fd5b6103fd600480803573ffffffffffffffffffffffffffffffffffffffff16906020019091908035906020019091905050610daf565b6040518082815260200191505060405180910390f35b341561041e57600080fd5b610426610dd4565b6040518082815260200191505060405180910390f35b6104646004808035906020019091908035906020019091908035906020019091905050610ddc565b005b341561047157600080fd5b6104876004808035906020019091905050610fff565b6040518082815260200191505060405180910390f35b6000806000806000806000806104b16110c4565b60008a8154811015156104c057fe5b90600052602060002090600802016101006040519081016040529081600082015481526020016001820160009054906101000a900473ffffffffffffffffffffffffffffffffffffffff1673ffffffffffffffffffffffffffffffffffffffff1673ffffffffffffffffffffffffffffffffffffffff1681526020016002820154815260200160038201548152602001600482015481526020016005820160009054906101000a900460ff16151515158152602001600682015481526020016007820154815250509050806000015181602001518260400151836060015184608001518560a001518660c001518760e001519850985098509850985098509850985050919395975091939597565b826105d76110c4565b6000828154811015156105e657fe5b90600052602060002090600802016101006040519081016040529081600082015481526020016001820160009054906101000a900473ffffffffffffffffffffffffffffffffffffffff1673ffffffffffffffffffffffffffffffffffffffff1673ffffffffffffffffffffffffffffffffffffffff1681526020016002820154815260200160038201548152602001600482015481526020016005820160009054906101000a900460ff16151515158152602001600682015481526020016007820154815250509050428160400151101515156106c357600080fd5b8484846106ce6110c4565b6000848154811015156106dd57fe5b90600052602060002090600802016101006040519081016040529081600082015481526020016001820160009054906101000a900473ffffffffffffffffffffffffffffffffffffffff1673ffffffffffffffffffffffffffffffffffffffff1673ffffffffffffffffffffffffffffffffffffffff1681526020016002820154815260200160038201548152602001600482015481526020016005820160009054906101000a900460ff16151515158152602001600682015481526020016007820154815250509050828160c001511415156107b957600080fd5b818160e001511415156107cb57600080fd5b6001600360003373ffffffffffffffffffffffffffffffffffffffff1673ffffffffffffffffffffffffffffffffffffffff16815260200190815260200160002060008b815260200190815260200160002060006101000a81548160ff021916908315150217905550505050505050505050565b3373ffffffffffffffffffffffffffffffffffffffff1660008281548110151561086557fe5b906000526020600020906008020160010160009054906101000a900473ffffffffffffffffffffffffffffffffffffffff1673ffffffffffffffffffffffffffffffffffffffff161415156108b957600080fd5b426000828154811015156108c957fe5b90600052602060002090600802016002018190555050565b6000600260003373ffffffffffffffffffffffffffffffffffffffff1673ffffffffffffffffffffffffffffffffffffffff1681526020019081526020016000206000838152602001908152602001600020549050919050565b60008060004291506201518082019050809250505090565b60056020528060005260406000206000915090505481565b600080823460008281548110151561097f57fe5b90600052602060002090600802016004015414151561099d57600080fd5b836000600260003373ffffffffffffffffffffffffffffffffffffffff1673ffffffffffffffffffffffffffffffffffffffff1681526020019081526020016000206000838152602001908152602001600020541415156109fd57600080fd5b600085815481101515610a0c57fe5b9060005260206000209060080201935034925082846003016000828254019250508190555082600260003373ffffffffffffffffffffffffffffffffffffffff1673ffffffffffffffffffffffffffffffffffffffff1681526020019081526020016000206000878152602001908152602001600020819055505050505050565b6000803390508091505090565b600081610aa56110c4565b600082815481101515610ab457fe5b90600052602060002090600802016101006040519081016040529081600082015481526020016001820160009054906101000a900473ffffffffffffffffffffffffffffffffffffffff1673ffffffffffffffffffffffffffffffffffffffff1673ffffffffffffffffffffffffffffffffffffffff1681526020016002820154815260200160038201548152602001600482015481526020016005820160009054906101000a900460ff1615151515815260200160068201548152602001600782015481525050905042816040015111151515610b9157600080fd5b6000600260003373ffffffffffffffffffffffffffffffffffffffff1673ffffffffffffffffffffffffffffffffffffffff168152602001908152602001600020600086815260200190815260200160002054111515610bf057600080fd5b60011515600360003373ffffffffffffffffffffffffffffffffffffffff1673ffffffffffffffffffffffffffffffffffffffff168152602001908152602001600020600086815260200190815260200160002060009054906101000a900460ff161515141515610c6057600080fd5b600260003373ffffffffffffffffffffffffffffffffffffffff1673ffffffffffffffffffffffffffffffffffffffff16815260200190815260200160002060008581526020019081526020016000205492506000600260003373ffffffffffffffffffffffffffffffffffffffff1673ffffffffffffffffffffffffffffffffffffffff1681526020019081526020016000206000868152602001908152602001600020819055503373ffffffffffffffffffffffffffffffffffffffff166108fc849081150290604051600060405180830381858888f193505050501515610d4957600080fd5b50505050565b60036020528160005260406000206020528060005260406000206000915091509054906101000a900460ff1681565b600460205281600052604060002081815481101515610d9957fe5b9060005260206000209001600091509150505481565b6002602052816000526040600020602052806000526040600020600091509150505481565b600042905090565b6000610de66110c4565b844281111515610df557600080fd5b3492506101006040519081016040528060015481526020013373ffffffffffffffffffffffffffffffffffffffff16815260200187815260200184815260200184815260200160001515815260200186815260200185815250915060008054806001018281610e649190611122565b916000526020600020906008020160008490919091506000820151816000015560208201518160010160006101000a81548173ffffffffffffffffffffffffffffffffffffffff021916908373ffffffffffffffffffffffffffffffffffffffff16021790555060408201518160020155606082015181600301556080820151816004015560a08201518160050160006101000a81548160ff02191690831515021790555060c0820151816006015560e08201518160070155505050610f2e82600001518461106b565b600460003373ffffffffffffffffffffffffffffffffffffffff1673ffffffffffffffffffffffffffffffffffffffff1681526020019081526020016000208054806001018281610f7f9190611154565b9160005260206000209001600060015490919091505550600560003373ffffffffffffffffffffffffffffffffffffffff1673ffffffffffffffffffffffffffffffffffffffff16815260200190815260200160002060008154809291906001019190505550600160008154809291906001019190505550505050505050565b6000806000600460003373ffffffffffffffffffffffffffffffffffffffff1673ffffffffffffffffffffffffffffffffffffffff1681526020019081526020016000209150818481548110151561105357fe5b90600052602060002090015490508092505050919050565b80600260003373ffffffffffffffffffffffffffffffffffffffff1673ffffffffffffffffffffffffffffffffffffffff1681526020019081526020016000206000848152602001908152602001600020819055505050565b6101006040519081016040528060008152602001600073ffffffffffffffffffffffffffffffffffffffff16815260200160008152602001600081526020016000815260200160001515815260200160008152602001600081525090565b81548183558181151161114f5760080281600802836000526020600020918201910161114e9190611180565b5b505050565b81548183558181151161117b5781836000526020600020918201910161117a919061120a565b5b505050565b61120791905b80821115611203576000808201600090556001820160006101000a81549073ffffffffffffffffffffffffffffffffffffffff02191690556002820160009055600382016000905560048201600090556005820160006101000a81549060ff02191690556006820160009055600782016000905550600801611186565b5090565b90565b61122c91905b80821115611228576000816000905550600101611210565b5090565b905600a165627a7a72305820b41b9faa7d4d17072a20905ccf9a377f3ba74b92feb334be8f72e3329cd550240029",
  "source": "pragma solidity ^0.4.11;\n\ncontract MeetMe {\n    struct Appointment {\n        uint id;\n        address owner;\n        uint meeting_time;\n        uint etherAmount;\n        uint pricing;\n        bool finished;\n        int lat;\n        int lng;\n    }\n\n    Appointment[] appointments;\n    uint appointmentsCount;\n    mapping(address => mapping(uint => uint)) public userBetToAppointment;\n    mapping(address => mapping(uint => bool)) public userAcheivedToAppointment;\n    mapping(address => uint[]) public userToAppointmentId;\n    mapping(address => uint) public userToAppointmentCount;\n\n    function MeetMe() public {\n        appointmentsCount = 0;\n    }\n\n    function checkTime() public returns(uint _now) {\n        return(now);\n    }\n\n    function checkFutureTime() public returns(uint _tomorrow) {\n        uint today = block.timestamp;\n        uint tomorrow = today + 1 days;\n        return(tomorrow);\n    }\n\n    function changeDeadLine(uint _id) public {\n        require(appointments[_id].owner == msg.sender);\n        appointments[_id].meeting_time = block.timestamp;\n    }\n\n    modifier requireAppropriateTime(uint _meeting_time) {\n        require(_meeting_time > block.timestamp);\n        _;\n    }\n\n    modifier requireEqualToPricing(uint _id) {\n        require(appointments[_id].pricing == msg.value);\n        _;\n    }\n\n    modifier requireUserNotBetYet(uint _id) {\n        require(userBetToAppointment[msg.sender][_id] == 0);\n        _;\n    }\n\n    modifier requireCorrectLocation(uint _id, int _lat, int _lng) {\n        Appointment memory appointment = appointments[_id];\n        require(appointment.lat == _lat);\n        require(appointment.lng == _lng);\n        _;\n    }\n\n    modifier requireBeforeDeadline(uint _id ) {\n        Appointment memory appointment = appointments[_id];\n        require(appointment.meeting_time >= block.timestamp);\n        _;\n    }\n\n    modifier requireAlreadyFinised(uint _id) {\n        Appointment memory appointment = appointments[_id];\n        require(appointment.meeting_time <= block.timestamp);\n        _;\n    }\n\n    function createAppointment(uint _meeting_time, int _lat, int _lng) public requireAppropriateTime(_meeting_time) payable{\n        uint value = msg.value;\n        Appointment memory appointment = Appointment({\n            id: appointmentsCount,\n            owner: msg.sender,\n            meeting_time: _meeting_time,\n            etherAmount: value,\n            pricing: value,\n            finished: false,\n            lat: _lat,\n            lng: _lng\n        });\n        appointments.push(appointment);\n        setToAppointment(appointment.id, value);\n        userToAppointmentId[msg.sender].push(appointmentsCount);\n        userToAppointmentCount[msg.sender]++;\n        appointmentsCount++;\n        /* createdAppointment(appointment.owner, appointment.meeting_time); */\n    }\n\n    function getAppointment(uint _id) public view returns(\n      uint id,\n      address owner,\n      uint meeting_time,\n      uint etherAmount,\n      uint pricing,\n      bool finished,\n      int lat,\n      int lng\n     )\n    {\n      Appointment memory appointment = appointments[_id];\n      return(\n        appointment.id,\n        appointment.owner,\n        appointment.meeting_time,\n        appointment.etherAmount,\n        appointment.pricing,\n        appointment.finished,\n        appointment.lat,\n        appointment.lng\n      );\n    }\n\n    function setToAppointment(uint _id, uint _value) internal {\n         userBetToAppointment[msg.sender][_id] = _value;\n    }\n\n    function getMyLastApointment(uint _count) public view returns(\n      uint id\n      ) {\n        var last_id_array = userToAppointmentId[msg.sender];\n        var last_id = last_id_array[_count];\n        return(last_id);\n      }\n\n    function betToAppointment(uint _id) public requireEqualToPricing(_id) requireUserNotBetYet(_id) payable {\n        Appointment storage appointment = appointments[_id];\n        uint value = msg.value;\n        appointment.etherAmount += value;\n        userBetToAppointment[msg.sender][_id] = value;\n    }\n\n    function checkBetToAppointment(uint _id) public returns(uint){\n        return(userBetToAppointment[msg.sender][_id]);\n    }\n\n    function setAchievedToAppointment(uint _id, int _lat, int _lng) public requireBeforeDeadline(_id) requireCorrectLocation(_id, _lat, _lng){\n        userAcheivedToAppointment[msg.sender][_id] = true;\n    }\n\n    function witdrawBet(uint _id) requireAlreadyFinised(_id) {\n        require(userBetToAppointment[msg.sender][_id] > 0);\n        require(userAcheivedToAppointment[msg.sender][_id] == true);\n        uint betAmount = userBetToAppointment[msg.sender][_id];\n        userBetToAppointment[msg.sender][_id] = 0;\n        if(!msg.sender.send(betAmount)) {\n            throw;\n        }\n    }\n\n    function checkMyAddress() view returns(address) {\n        var ma = msg.sender;\n        return ma;\n    }\n\n}\n",
  "sourcePath": "/Users/Oyana/workspace/project/TimeIsMoney/contracts/MeetMe.sol",
  "compiler": {
    "name": "solc",
    "version": "0.4.21+commit.dfe3193c.Emscripten.clang"
  },
  "schemaVersion": "2.0.0",
  "updatedAt": "2018-05-20T16:19:15.838Z"
}