{
  "contractName": "MeetMe",
  "abi": [
    {
      "constant": true,
      "inputs": [
        {
          "name": "",
          "type": "address"
        }
      ],
      "name": "userToAppointmentCount",
      "outputs": [
        {
          "name": "",
          "type": "uint256"
        }
      ],
      "payable": false,
      "stateMutability": "view",
      "type": "function"
    },
    {
      "constant": true,
      "inputs": [
        {
          "name": "",
          "type": "address"
        },
        {
          "name": "",
          "type": "uint256"
        }
      ],
      "name": "userAcheivedToAppointment",
      "outputs": [
        {
          "name": "",
          "type": "bool"
        }
      ],
      "payable": false,
      "stateMutability": "view",
      "type": "function"
    },
    {
      "constant": true,
      "inputs": [
        {
          "name": "",
          "type": "address"
        },
        {
          "name": "",
          "type": "uint256"
        }
      ],
      "name": "userToAppointmentId",
      "outputs": [
        {
          "name": "",
          "type": "uint256"
        }
      ],
      "payable": false,
      "stateMutability": "view",
      "type": "function"
    },
    {
      "constant": true,
      "inputs": [
        {
          "name": "",
          "type": "address"
        },
        {
          "name": "",
          "type": "uint256"
        }
      ],
      "name": "userBetToAppointment",
      "outputs": [
        {
          "name": "",
          "type": "uint256"
        }
      ],
      "payable": false,
      "stateMutability": "view",
      "type": "function"
    },
    {
      "inputs": [],
      "payable": false,
      "stateMutability": "nonpayable",
      "type": "constructor"
    },
    {
      "constant": false,
      "inputs": [],
      "name": "checkTime",
      "outputs": [
        {
          "name": "_now",
          "type": "uint256"
        }
      ],
      "payable": false,
      "stateMutability": "nonpayable",
      "type": "function"
    },
    {
      "constant": false,
      "inputs": [],
      "name": "checkFutureTime",
      "outputs": [
        {
          "name": "_tomorrow",
          "type": "uint256"
        }
      ],
      "payable": false,
      "stateMutability": "nonpayable",
      "type": "function"
    },
    {
      "constant": false,
      "inputs": [
        {
          "name": "_id",
          "type": "uint256"
        }
      ],
      "name": "changeDeadLine",
      "outputs": [],
      "payable": false,
      "stateMutability": "nonpayable",
      "type": "function"
    },
    {
      "constant": false,
      "inputs": [
        {
          "name": "_meeting_time",
          "type": "uint256"
        },
        {
          "name": "_lat",
          "type": "int256"
        },
        {
          "name": "_lng",
          "type": "int256"
        }
      ],
      "name": "createAppointment",
      "outputs": [],
      "payable": true,
      "stateMutability": "payable",
      "type": "function"
    },
    {
      "constant": false,
      "inputs": [
        {
          "name": "_id",
          "type": "uint256"
        }
      ],
      "name": "getAppointment",
      "outputs": [
        {
          "name": "id",
          "type": "uint256"
        },
        {
          "name": "owner",
          "type": "address"
        },
        {
          "name": "meeting_time",
          "type": "uint256"
        },
        {
          "name": "etherAmount",
          "type": "uint256"
        },
        {
          "name": "pricing",
          "type": "uint256"
        },
        {
          "name": "finished",
          "type": "bool"
        },
        {
          "name": "lat",
          "type": "int256"
        },
        {
          "name": "lng",
          "type": "int256"
        }
      ],
      "payable": false,
      "stateMutability": "nonpayable",
      "type": "function"
    },
    {
      "constant": true,
      "inputs": [
        {
          "name": "_count",
          "type": "uint256"
        }
      ],
      "name": "getMyLastApointment",
      "outputs": [
        {
          "name": "id",
          "type": "uint256"
        }
      ],
      "payable": false,
      "stateMutability": "view",
      "type": "function"
    },
    {
      "constant": false,
      "inputs": [
        {
          "name": "_id",
          "type": "uint256"
        }
      ],
      "name": "betToAppointment",
      "outputs": [],
      "payable": true,
      "stateMutability": "payable",
      "type": "function"
    },
    {
      "constant": false,
      "inputs": [
        {
          "name": "_id",
          "type": "uint256"
        }
      ],
      "name": "checkBetToAppointment",
      "outputs": [
        {
          "name": "",
          "type": "uint256"
        }
      ],
      "payable": false,
      "stateMutability": "nonpayable",
      "type": "function"
    },
    {
      "constant": false,
      "inputs": [
        {
          "name": "_id",
          "type": "uint256"
        },
        {
          "name": "_lat",
          "type": "int256"
        },
        {
          "name": "_lng",
          "type": "int256"
        }
      ],
      "name": "setAchievedToAppointment",
      "outputs": [],
      "payable": false,
      "stateMutability": "nonpayable",
      "type": "function"
    },
    {
      "constant": true,
      "inputs": [
        {
          "name": "_id",
          "type": "uint256"
        }
      ],
      "name": "checkAppointmentAlreadyFinised",
      "outputs": [
        {
          "name": "",
          "type": "bool"
        }
      ],
      "payable": false,
      "stateMutability": "view",
      "type": "function"
    },
    {
      "constant": false,
      "inputs": [
        {
          "name": "_id",
          "type": "uint256"
        }
      ],
      "name": "witdrawBet",
      "outputs": [],
      "payable": false,
      "stateMutability": "nonpayable",
      "type": "function"
    },
    {
      "constant": true,
      "inputs": [],
      "name": "checkMyAddress",
      "outputs": [
        {
          "name": "",
          "type": "address"
        }
      ],
      "payable": false,
      "stateMutability": "view",
      "type": "function"
    }
  ],
  "bytecode": "0x6060604052341561000f57600080fd5b60006001819055506113a5806100266000396000f3006060604052600436106100e6576000357c0100000000000000000000000000000000000000000000000000000000900463ffffffff1680630d943da2146100eb578063557db808146101835780636709d8a5146101b85780636e33e454146101db57806375084a8c146102125780637ac8d3841461023b5780638ed5fab914610288578063a18bf1e9146102a0578063a7504fc0146102f5578063b4720fbc14610330578063b65cac0514610353578063c261684c146103ad578063dfd5507c14610403578063e0c6190d14610459578063eabec87614610482578063f1b31b03146104ac575b600080fd5b34156100f657600080fd5b61010c60048080359060200190919050506104e3565b604051808981526020018873ffffffffffffffffffffffffffffffffffffffff1673ffffffffffffffffffffffffffffffffffffffff168152602001878152602001868152602001858152602001841515151581526020018381526020018281526020019850505050505050505060405180910390f35b341561018e57600080fd5b6101b66004808035906020019091908035906020019091908035906020019091905050610614565b005b34156101c357600080fd5b6101d96004808035906020019091905050610885565b005b34156101e657600080fd5b6101fc6004808035906020019091905050610927565b6040518082815260200191505060405180910390f35b341561021d57600080fd5b610225610981565b6040518082815260200191505060405180910390f35b341561024657600080fd5b610272600480803573ffffffffffffffffffffffffffffffffffffffff16906020019091905050610999565b6040518082815260200191505060405180910390f35b61029e60048080359060200190919050506109b1565b005b34156102ab57600080fd5b6102b3610ad3565b604051808273ffffffffffffffffffffffffffffffffffffffff1673ffffffffffffffffffffffffffffffffffffffff16815260200191505060405180910390f35b341561030057600080fd5b6103166004808035906020019091905050610ae0565b604051808215151515815260200191505060405180910390f35b341561033b57600080fd5b6103516004808035906020019091905050610be4565b005b341561035e57600080fd5b610393600480803573ffffffffffffffffffffffffffffffffffffffff16906020019091908035906020019091905050610e99565b604051808215151515815260200191505060405180910390f35b34156103b857600080fd5b6103ed600480803573ffffffffffffffffffffffffffffffffffffffff16906020019091908035906020019091905050610ec8565b6040518082815260200191505060405180910390f35b341561040e57600080fd5b610443600480803573ffffffffffffffffffffffffffffffffffffffff16906020019091908035906020019091905050610ef9565b6040518082815260200191505060405180910390f35b341561046457600080fd5b61046c610f1e565b6040518082815260200191505060405180910390f35b6104aa6004808035906020019091908035906020019091908035906020019091905050610f26565b005b34156104b757600080fd5b6104cd6004808035906020019091905050611149565b6040518082815260200191505060405180910390f35b6000806000806000806000806104f761120e565b60008a81548110151561050657fe5b90600052602060002090600802016101006040519081016040529081600082015481526020016001820160009054906101000a900473ffffffffffffffffffffffffffffffffffffffff1673ffffffffffffffffffffffffffffffffffffffff1673ffffffffffffffffffffffffffffffffffffffff1681526020016002820154815260200160038201548152602001600482015481526020016005820160009054906101000a900460ff16151515158152602001600682015481526020016007820154815250509050806000015181602001518260400151836060015184608001518560a001518660c001518760e001519850985098509850985098509850985050919395975091939597565b8261061d61120e565b60008281548110151561062c57fe5b90600052602060002090600802016101006040519081016040529081600082015481526020016001820160009054906101000a900473ffffffffffffffffffffffffffffffffffffffff1673ffffffffffffffffffffffffffffffffffffffff1673ffffffffffffffffffffffffffffffffffffffff1681526020016002820154815260200160038201548152602001600482015481526020016005820160009054906101000a900460ff161515151581526020016006820154815260200160078201548152505090504281604001511015151561070957600080fd5b84848461071461120e565b60008481548110151561072357fe5b90600052602060002090600802016101006040519081016040529081600082015481526020016001820160009054906101000a900473ffffffffffffffffffffffffffffffffffffffff1673ffffffffffffffffffffffffffffffffffffffff1673ffffffffffffffffffffffffffffffffffffffff1681526020016002820154815260200160038201548152602001600482015481526020016005820160009054906101000a900460ff16151515158152602001600682015481526020016007820154815250509050828160c001511415156107ff57600080fd5b818160e0015114151561081157600080fd5b6001600360003373ffffffffffffffffffffffffffffffffffffffff1673ffffffffffffffffffffffffffffffffffffffff16815260200190815260200160002060008b815260200190815260200160002060006101000a81548160ff021916908315150217905550505050505050505050565b3373ffffffffffffffffffffffffffffffffffffffff166000828154811015156108ab57fe5b906000526020600020906008020160010160009054906101000a900473ffffffffffffffffffffffffffffffffffffffff1673ffffffffffffffffffffffffffffffffffffffff161415156108ff57600080fd5b4260008281548110151561090f57fe5b90600052602060002090600802016002018190555050565b6000600260003373ffffffffffffffffffffffffffffffffffffffff1673ffffffffffffffffffffffffffffffffffffffff1681526020019081526020016000206000838152602001908152602001600020549050919050565b60008060004291506201518082019050809250505090565b60056020528060005260406000206000915090505481565b60008082346000828154811015156109c557fe5b9060005260206000209060080201600401541415156109e357600080fd5b836000600260003373ffffffffffffffffffffffffffffffffffffffff1673ffffffffffffffffffffffffffffffffffffffff168152602001908152602001600020600083815260200190815260200160002054141515610a4357600080fd5b600085815481101515610a5257fe5b9060005260206000209060080201935034925082846003016000828254019250508190555082600260003373ffffffffffffffffffffffffffffffffffffffff1673ffffffffffffffffffffffffffffffffffffffff1681526020019081526020016000206000878152602001908152602001600020819055505050505050565b6000803390508091505090565b6000610aea61120e565b600083815481101515610af957fe5b90600052602060002090600802016101006040519081016040529081600082015481526020016001820160009054906101000a900473ffffffffffffffffffffffffffffffffffffffff1673ffffffffffffffffffffffffffffffffffffffff1673ffffffffffffffffffffffffffffffffffffffff1681526020016002820154815260200160038201548152602001600482015481526020016005820160009054906101000a900460ff16151515158152602001600682015481526020016007820154815250509050428160400151111515610bd95760019150610bde565b600091505b50919050565b600081610bef61120e565b600082815481101515610bfe57fe5b90600052602060002090600802016101006040519081016040529081600082015481526020016001820160009054906101000a900473ffffffffffffffffffffffffffffffffffffffff1673ffffffffffffffffffffffffffffffffffffffff1673ffffffffffffffffffffffffffffffffffffffff1681526020016002820154815260200160038201548152602001600482015481526020016005820160009054906101000a900460ff1615151515815260200160068201548152602001600782015481525050905042816040015111151515610cdb57600080fd5b6000600260003373ffffffffffffffffffffffffffffffffffffffff1673ffffffffffffffffffffffffffffffffffffffff168152602001908152602001600020600086815260200190815260200160002054111515610d3a57600080fd5b60011515600360003373ffffffffffffffffffffffffffffffffffffffff1673ffffffffffffffffffffffffffffffffffffffff168152602001908152602001600020600086815260200190815260200160002060009054906101000a900460ff161515141515610daa57600080fd5b600260003373ffffffffffffffffffffffffffffffffffffffff1673ffffffffffffffffffffffffffffffffffffffff16815260200190815260200160002060008581526020019081526020016000205492506000600260003373ffffffffffffffffffffffffffffffffffffffff1673ffffffffffffffffffffffffffffffffffffffff1681526020019081526020016000206000868152602001908152602001600020819055503373ffffffffffffffffffffffffffffffffffffffff166108fc849081150290604051600060405180830381858888f193505050501515610e9357600080fd5b50505050565b60036020528160005260406000206020528060005260406000206000915091509054906101000a900460ff1681565b600460205281600052604060002081815481101515610ee357fe5b9060005260206000209001600091509150505481565b6002602052816000526040600020602052806000526040600020600091509150505481565b600042905090565b6000610f3061120e565b844281111515610f3f57600080fd5b3492506101006040519081016040528060015481526020013373ffffffffffffffffffffffffffffffffffffffff16815260200187815260200184815260200184815260200160001515815260200186815260200185815250915060008054806001018281610fae919061126c565b916000526020600020906008020160008490919091506000820151816000015560208201518160010160006101000a81548173ffffffffffffffffffffffffffffffffffffffff021916908373ffffffffffffffffffffffffffffffffffffffff16021790555060408201518160020155606082015181600301556080820151816004015560a08201518160050160006101000a81548160ff02191690831515021790555060c0820151816006015560e082015181600701555050506110788260000151846111b5565b600460003373ffffffffffffffffffffffffffffffffffffffff1673ffffffffffffffffffffffffffffffffffffffff16815260200190815260200160002080548060010182816110c9919061129e565b9160005260206000209001600060015490919091505550600560003373ffffffffffffffffffffffffffffffffffffffff1673ffffffffffffffffffffffffffffffffffffffff16815260200190815260200160002060008154809291906001019190505550600160008154809291906001019190505550505050505050565b6000806000600460003373ffffffffffffffffffffffffffffffffffffffff1673ffffffffffffffffffffffffffffffffffffffff1681526020019081526020016000209150818481548110151561119d57fe5b90600052602060002090015490508092505050919050565b80600260003373ffffffffffffffffffffffffffffffffffffffff1673ffffffffffffffffffffffffffffffffffffffff1681526020019081526020016000206000848152602001908152602001600020819055505050565b6101006040519081016040528060008152602001600073ffffffffffffffffffffffffffffffffffffffff16815260200160008152602001600081526020016000815260200160001515815260200160008152602001600081525090565b8154818355818115116112995760080281600802836000526020600020918201910161129891906112ca565b5b505050565b8154818355818115116112c5578183600052602060002091820191016112c49190611354565b5b505050565b61135191905b8082111561134d576000808201600090556001820160006101000a81549073ffffffffffffffffffffffffffffffffffffffff02191690556002820160009055600382016000905560048201600090556005820160006101000a81549060ff021916905560068201600090556007820160009055506008016112d0565b5090565b90565b61137691905b8082111561137257600081600090555060010161135a565b5090565b905600a165627a7a72305820b87db024a2f1c4f8f8acb62be8744f921d21961f1edcc3bd6bac0d88f8f8cde10029",
  "source": "pragma solidity ^0.4.11;\n\ncontract MeetMe {\n    struct Appointment {\n        uint id;\n        address owner;\n        uint meeting_time;\n        uint etherAmount;\n        uint pricing;\n        bool finished;\n        int lat;\n        int lng;\n    }\n\n    Appointment[] appointments;\n    uint appointmentsCount;\n    mapping(address => mapping(uint => uint)) public userBetToAppointment;\n    mapping(address => mapping(uint => bool)) public userAcheivedToAppointment;\n    mapping(address => uint[]) public userToAppointmentId;\n    mapping(address => uint) public userToAppointmentCount;\n\n    function MeetMe() public {\n        appointmentsCount = 0;\n    }\n\n    function checkTime() public returns(uint _now) {\n        return(now);\n    }\n\n    function checkFutureTime() public returns(uint _tomorrow) {\n        uint today = block.timestamp;\n        uint tomorrow = today + 1 days;\n        return(tomorrow);\n    }\n\n    function changeDeadLine(uint _id) public {\n        require(appointments[_id].owner == msg.sender);\n        appointments[_id].meeting_time = block.timestamp;\n    }\n\n    modifier requireAppropriateTime(uint _meeting_time) {\n        require(_meeting_time > block.timestamp);\n        _;\n    }\n\n    modifier requireEqualToPricing(uint _id) {\n        require(appointments[_id].pricing == msg.value);\n        _;\n    }\n\n    modifier requireUserNotBetYet(uint _id) {\n        require(userBetToAppointment[msg.sender][_id] == 0);\n        _;\n    }\n\n    modifier requireCorrectLocation(uint _id, int _lat, int _lng) {\n        Appointment memory appointment = appointments[_id];\n        require(appointment.lat == _lat);\n        require(appointment.lng == _lng);\n        _;\n    }\n\n    modifier requireBeforeDeadline(uint _id ) {\n        Appointment memory appointment = appointments[_id];\n        require(appointment.meeting_time >= block.timestamp);\n        _;\n    }\n\n    modifier requireAlreadyFinised(uint _id) {\n        Appointment memory appointment = appointments[_id];\n        require(appointment.meeting_time <= block.timestamp);\n        _;\n    }\n\n    function createAppointment(uint _meeting_time, int _lat, int _lng) public requireAppropriateTime(_meeting_time) payable{\n        uint value = msg.value;\n        Appointment memory appointment = Appointment({\n            id: appointmentsCount,\n            owner: msg.sender,\n            meeting_time: _meeting_time,\n            etherAmount: value,\n            pricing: value,\n            finished: false,\n            lat: _lat,\n            lng: _lng\n        });\n        appointments.push(appointment);\n        setToAppointment(appointment.id, value);\n        userToAppointmentId[msg.sender].push(appointmentsCount);\n        userToAppointmentCount[msg.sender]++;\n        appointmentsCount++;\n        /* createdAppointment(appointment.owner, appointment.meeting_time); */\n    }\n\n    function getAppointment(uint _id) public returns(\n      uint id,\n      address owner,\n      uint meeting_time,\n      uint etherAmount,\n      uint pricing,\n      bool finished,\n      int lat,\n      int lng\n     )\n    {\n      Appointment memory appointment = appointments[_id];\n      return(\n        appointment.id,\n        appointment.owner,\n        appointment.meeting_time,\n        appointment.etherAmount,\n        appointment.pricing,\n        appointment.finished,\n        appointment.lat,\n        appointment.lng\n      );\n    }\n\n    function setToAppointment(uint _id, uint _value) internal {\n         userBetToAppointment[msg.sender][_id] = _value;\n    }\n\n    function getMyLastApointment(uint _count) public view returns(\n      uint id\n      ) {\n        var last_id_array = userToAppointmentId[msg.sender];\n        var last_id = last_id_array[_count];\n        return(last_id);\n      }\n\n    function betToAppointment(uint _id) public requireEqualToPricing(_id) requireUserNotBetYet(_id) payable {\n        Appointment storage appointment = appointments[_id];\n        uint value = msg.value;\n        appointment.etherAmount += value;\n        userBetToAppointment[msg.sender][_id] = value;\n    }\n\n    function checkBetToAppointment(uint _id) public returns(uint){\n        return(userBetToAppointment[msg.sender][_id]);\n    }\n\n    function setAchievedToAppointment(uint _id, int _lat, int _lng) public requireBeforeDeadline(_id) requireCorrectLocation(_id, _lat, _lng){\n        userAcheivedToAppointment[msg.sender][_id] = true;\n    }\n\n    function checkAppointmentAlreadyFinised(uint _id) public view returns(bool) {\n        Appointment memory appointment = appointments[_id];\n        if (appointment.meeting_time <= block.timestamp) {\n            // もう終わった\n            return true;\n        } else {\n            // まだ終わっていない\n            return false;\n        }\n    }\n\n    function witdrawBet(uint _id) requireAlreadyFinised(_id) {\n        require(userBetToAppointment[msg.sender][_id] > 0);\n        require(userAcheivedToAppointment[msg.sender][_id] == true);\n        uint betAmount = userBetToAppointment[msg.sender][_id];\n        userBetToAppointment[msg.sender][_id] = 0;\n        if(!msg.sender.send(betAmount)) {\n            throw;\n        }\n    }\n\n    function checkMyAddress() view returns(address) {\n        var ma = msg.sender;\n        return ma;\n    }\n\n}\n",
  "sourcePath": "/Users/Oyana/workspace/project/TimeIsMoney/contracts/MeetMe.sol",
  "compiler": {
    "name": "solc",
    "version": "0.4.21+commit.dfe3193c.Emscripten.clang"
  },
  "schemaVersion": "2.0.0",
  "updatedAt": "2018-05-24T05:59:24.737Z"
}