{
  "contractName": "TimeIsMoney",
  "abi": [
    {
      "constant": true,
      "inputs": [
        {
          "name": "",
          "type": "address"
        },
        {
          "name": "",
          "type": "uint256"
        }
      ],
      "name": "userBetToPromise",
      "outputs": [
        {
          "name": "",
          "type": "uint256"
        }
      ],
      "payable": false,
      "stateMutability": "view",
      "type": "function"
    },
    {
      "constant": true,
      "inputs": [
        {
          "name": "",
          "type": "address"
        },
        {
          "name": "",
          "type": "uint256"
        }
      ],
      "name": "userToPromiseId",
      "outputs": [
        {
          "name": "",
          "type": "uint256"
        }
      ],
      "payable": false,
      "stateMutability": "view",
      "type": "function"
    },
    {
      "constant": true,
      "inputs": [
        {
          "name": "",
          "type": "address"
        },
        {
          "name": "",
          "type": "uint256"
        }
      ],
      "name": "userAcheivedToPromise",
      "outputs": [
        {
          "name": "",
          "type": "bool"
        }
      ],
      "payable": false,
      "stateMutability": "view",
      "type": "function"
    },
    {
      "inputs": [],
      "payable": false,
      "stateMutability": "nonpayable",
      "type": "constructor"
    },
    {
      "constant": false,
      "inputs": [],
      "name": "checkTime",
      "outputs": [
        {
          "name": "_now",
          "type": "uint256"
        }
      ],
      "payable": false,
      "stateMutability": "nonpayable",
      "type": "function"
    },
    {
      "constant": false,
      "inputs": [],
      "name": "checkFutureTime",
      "outputs": [
        {
          "name": "_tomorrow",
          "type": "uint256"
        }
      ],
      "payable": false,
      "stateMutability": "nonpayable",
      "type": "function"
    },
    {
      "constant": false,
      "inputs": [
        {
          "name": "_id",
          "type": "uint256"
        }
      ],
      "name": "cangeDeadLine",
      "outputs": [],
      "payable": false,
      "stateMutability": "nonpayable",
      "type": "function"
    },
    {
      "constant": false,
      "inputs": [
        {
          "name": "_deadline",
          "type": "uint256"
        },
        {
          "name": "_lat",
          "type": "int256"
        },
        {
          "name": "_lng",
          "type": "int256"
        }
      ],
      "name": "createPromise",
      "outputs": [],
      "payable": true,
      "stateMutability": "payable",
      "type": "function"
    },
    {
      "constant": false,
      "inputs": [
        {
          "name": "_id",
          "type": "uint256"
        }
      ],
      "name": "getPromise",
      "outputs": [
        {
          "name": "id",
          "type": "uint256"
        },
        {
          "name": "owner",
          "type": "address"
        },
        {
          "name": "etherMount",
          "type": "uint256"
        },
        {
          "name": "finished",
          "type": "bool"
        },
        {
          "name": "pricing",
          "type": "uint256"
        }
      ],
      "payable": false,
      "stateMutability": "nonpayable",
      "type": "function"
    },
    {
      "constant": false,
      "inputs": [
        {
          "name": "_id",
          "type": "uint256"
        }
      ],
      "name": "betToPromise",
      "outputs": [],
      "payable": true,
      "stateMutability": "payable",
      "type": "function"
    },
    {
      "constant": false,
      "inputs": [
        {
          "name": "_id",
          "type": "uint256"
        }
      ],
      "name": "checkBetToPromise",
      "outputs": [
        {
          "name": "",
          "type": "uint256"
        }
      ],
      "payable": false,
      "stateMutability": "nonpayable",
      "type": "function"
    },
    {
      "constant": false,
      "inputs": [
        {
          "name": "_id",
          "type": "uint256"
        },
        {
          "name": "_lat",
          "type": "int256"
        },
        {
          "name": "_lng",
          "type": "int256"
        }
      ],
      "name": "setAchievedToPromise",
      "outputs": [],
      "payable": false,
      "stateMutability": "nonpayable",
      "type": "function"
    },
    {
      "constant": false,
      "inputs": [
        {
          "name": "_id",
          "type": "uint256"
        }
      ],
      "name": "witdrawBet",
      "outputs": [],
      "payable": false,
      "stateMutability": "nonpayable",
      "type": "function"
    }
  ],
  "bytecode": "0x6060604052341561000f57600080fd5b6000600181905550610f98806100266000396000f3006060604052600436106100ba576000357c0100000000000000000000000000000000000000000000000000000000900463ffffffff1680632aad64a3146100bf5780633b0be681146100f457806344edc5871461011e5780635a2efd5d146101745780637476cd6a1461018c57806375084a8c146101af578063b1735db6146101d8578063b4720fbc1461022e578063e0c6190d14610251578063e28ee5501461027a578063effb2d84146102b1578063f72085931461030b575b600080fd5b34156100ca57600080fd5b6100f2600480803590602001909190803590602001909190803590602001909190505061038e565b005b61011c60048080359060200190919080359060200190919080359060200190919050506105ff565b005b341561012957600080fd5b61015e600480803573ffffffffffffffffffffffffffffffffffffffff1690602001909190803590602001909190505061076b565b6040518082815260200191505060405180910390f35b61018a6004808035906020019091905050610790565b005b341561019757600080fd5b6101ad60048080359060200190919050506108b2565b005b34156101ba57600080fd5b6101c2610954565b6040518082815260200191505060405180910390f35b34156101e357600080fd5b610218600480803573ffffffffffffffffffffffffffffffffffffffff1690602001909190803590602001909190505061096c565b6040518082815260200191505060405180910390f35b341561023957600080fd5b61024f600480803590602001909190505061099d565b005b341561025c57600080fd5b610264610c52565b6040518082815260200191505060405180910390f35b341561028557600080fd5b61029b6004808035906020019091905050610c5a565b6040518082815260200191505060405180910390f35b34156102bc57600080fd5b6102f1600480803573ffffffffffffffffffffffffffffffffffffffff16906020019091908035906020019091905050610cb4565b604051808215151515815260200191505060405180910390f35b341561031657600080fd5b61032c6004808035906020019091905050610ce3565b604051808681526020018573ffffffffffffffffffffffffffffffffffffffff1673ffffffffffffffffffffffffffffffffffffffff168152602001848152602001831515151581526020018281526020019550505050505060405180910390f35b82610397610e52565b6000828154811015156103a657fe5b90600052602060002090600802016101006040519081016040529081600082015481526020016001820160009054906101000a900473ffffffffffffffffffffffffffffffffffffffff1673ffffffffffffffffffffffffffffffffffffffff1673ffffffffffffffffffffffffffffffffffffffff1681526020016002820154815260200160038201548152602001600482015481526020016005820160009054906101000a900460ff161515151581526020016006820154815260200160078201548152505090504281604001511015151561048357600080fd5b84848461048e610e52565b60008481548110151561049d57fe5b90600052602060002090600802016101006040519081016040529081600082015481526020016001820160009054906101000a900473ffffffffffffffffffffffffffffffffffffffff1673ffffffffffffffffffffffffffffffffffffffff1673ffffffffffffffffffffffffffffffffffffffff1681526020016002820154815260200160038201548152602001600482015481526020016005820160009054906101000a900460ff16151515158152602001600682015481526020016007820154815250509050828160c0015114151561057957600080fd5b818160e0015114151561058b57600080fd5b6001600360003373ffffffffffffffffffffffffffffffffffffffff1673ffffffffffffffffffffffffffffffffffffffff16815260200190815260200160002060008b815260200190815260200160002060006101000a81548160ff021916908315150217905550505050505050505050565b6000610609610e52565b84428111151561061857600080fd5b3492506101006040519081016040528060015481526020013373ffffffffffffffffffffffffffffffffffffffff168152602001878152602001848152602001848152602001600015158152602001868152602001858152509150600080548060010182816106879190610eb0565b916000526020600020906008020160008490919091506000820151816000015560208201518160010160006101000a81548173ffffffffffffffffffffffffffffffffffffffff021916908373ffffffffffffffffffffffffffffffffffffffff16021790555060408201518160020155606082015181600301556080820151816004015560a08201518160050160006101000a81548160ff02191690831515021790555060c0820151816006015560e08201518160070155505050610751826000015184610df9565b600160008154809291906001019190505550505050505050565b6002602052816000526040600020602052806000526040600020600091509150505481565b60008082346000828154811015156107a457fe5b9060005260206000209060080201600401541415156107c257600080fd5b836000600260003373ffffffffffffffffffffffffffffffffffffffff1673ffffffffffffffffffffffffffffffffffffffff16815260200190815260200160002060008381526020019081526020016000205414151561082257600080fd5b60008581548110151561083157fe5b9060005260206000209060080201935034925082846003016000828254019250508190555082600260003373ffffffffffffffffffffffffffffffffffffffff1673ffffffffffffffffffffffffffffffffffffffff1681526020019081526020016000206000878152602001908152602001600020819055505050505050565b3373ffffffffffffffffffffffffffffffffffffffff166000828154811015156108d857fe5b906000526020600020906008020160010160009054906101000a900473ffffffffffffffffffffffffffffffffffffffff1673ffffffffffffffffffffffffffffffffffffffff1614151561092c57600080fd5b4260008281548110151561093c57fe5b90600052602060002090600802016002018190555050565b60008060004291506201518082019050809250505090565b60046020528160005260406000208181548110151561098757fe5b9060005260206000209001600091509150505481565b6000816109a8610e52565b6000828154811015156109b757fe5b90600052602060002090600802016101006040519081016040529081600082015481526020016001820160009054906101000a900473ffffffffffffffffffffffffffffffffffffffff1673ffffffffffffffffffffffffffffffffffffffff1673ffffffffffffffffffffffffffffffffffffffff1681526020016002820154815260200160038201548152602001600482015481526020016005820160009054906101000a900460ff1615151515815260200160068201548152602001600782015481525050905042816040015111151515610a9457600080fd5b6000600260003373ffffffffffffffffffffffffffffffffffffffff1673ffffffffffffffffffffffffffffffffffffffff168152602001908152602001600020600086815260200190815260200160002054111515610af357600080fd5b60011515600360003373ffffffffffffffffffffffffffffffffffffffff1673ffffffffffffffffffffffffffffffffffffffff168152602001908152602001600020600086815260200190815260200160002060009054906101000a900460ff161515141515610b6357600080fd5b600260003373ffffffffffffffffffffffffffffffffffffffff1673ffffffffffffffffffffffffffffffffffffffff16815260200190815260200160002060008581526020019081526020016000205492506000600260003373ffffffffffffffffffffffffffffffffffffffff1673ffffffffffffffffffffffffffffffffffffffff1681526020019081526020016000206000868152602001908152602001600020819055503373ffffffffffffffffffffffffffffffffffffffff166108fc849081150290604051600060405180830381858888f193505050501515610c4c57600080fd5b50505050565b600042905090565b6000600260003373ffffffffffffffffffffffffffffffffffffffff1673ffffffffffffffffffffffffffffffffffffffff1681526020019081526020016000206000838152602001908152602001600020549050919050565b60036020528160005260406000206020528060005260406000206000915091509054906101000a900460ff1681565b6000806000806000610cf3610e52565b600087815481101515610d0257fe5b90600052602060002090600802016101006040519081016040529081600082015481526020016001820160009054906101000a900473ffffffffffffffffffffffffffffffffffffffff1673ffffffffffffffffffffffffffffffffffffffff1673ffffffffffffffffffffffffffffffffffffffff1681526020016002820154815260200160038201548152602001600482015481526020016005820160009054906101000a900460ff161515151581526020016006820154815260200160078201548152505090508060000151816020015182606001518360a001518460800151955095509550955095505091939590929450565b80600260003373ffffffffffffffffffffffffffffffffffffffff1673ffffffffffffffffffffffffffffffffffffffff1681526020019081526020016000206000848152602001908152602001600020819055505050565b6101006040519081016040528060008152602001600073ffffffffffffffffffffffffffffffffffffffff16815260200160008152602001600081526020016000815260200160001515815260200160008152602001600081525090565b815481835581811511610edd57600802816008028360005260206000209182019101610edc9190610ee2565b5b505050565b610f6991905b80821115610f65576000808201600090556001820160006101000a81549073ffffffffffffffffffffffffffffffffffffffff02191690556002820160009055600382016000905560048201600090556005820160006101000a81549060ff02191690556006820160009055600782016000905550600801610ee8565b5090565b905600a165627a7a72305820876d0a4b2546febb43bac78ffffdb05959d51699c5c0b3c35fea5e0f6727a5610029",
  "source": "pragma solidity ^0.4.11;\n\ncontract TimeIsMoney {\n    struct Promise {\n        uint id;\n        address owner;\n        uint deadline;\n        uint etherMount;\n        uint pricing;\n        bool finished;\n        int lat;\n        int lng;\n    }\n\n    Promise[] promises;\n    uint promisesCount;\n    mapping(address => mapping(uint => uint)) public userBetToPromise;\n    mapping(address => mapping(uint => bool)) public userAcheivedToPromise;\n    mapping(address => uint[]) public userToPromiseId;\n    /* event createdPromise(address indexed owner, uint indexed deadline); */\n\n    function TimeIsMoney() public {\n        promisesCount = 0;\n    }\n\n    function checkTime() public returns(uint _now) {\n        return(now);\n    }\n\n    function checkFutureTime() public returns(uint _tomorrow) {\n        uint today = block.timestamp;\n        uint tomorrow = today + 1 days;\n        return(tomorrow);\n    }\n\n    function cangeDeadLine(uint _id) public {\n        require(promises[_id].owner == msg.sender);\n        promises[_id].deadline = block.timestamp;\n    }\n\n    modifier requireAppropriateTime(uint _deadline) {\n        require(_deadline > block.timestamp);\n        _;\n    }\n\n    modifier requireEqualToPricing(uint _id) {\n        require(promises[_id].pricing == msg.value);\n        _;\n    }\n\n    modifier requireUserNotBetYet(uint _id) {\n        require(userBetToPromise[msg.sender][_id] == 0);\n        _;\n    }\n\n    modifier requireCorrectLocation(uint _id, int _lat, int _lng) {\n        Promise memory promise = promises[_id];\n        require(promise.lat == _lat);\n        require(promise.lng == _lng);\n        _;\n    }\n\n    modifier requireBeforeDeadline(uint _id ) {\n        Promise memory promise = promises[_id];\n        require(promise.deadline >= block.timestamp);\n        _;\n    }\n\n    modifier requireAlreadyFinised(uint _id) {\n        Promise memory promise = promises[_id];\n        require(promise.deadline <= block.timestamp);\n        _;\n    }\n\n    function setToPromise(uint _id, uint _value) internal {\n         userBetToPromise[msg.sender][_id] = _value;\n    }\n\n    function createPromise(uint _deadline, int _lat, int _lng) public requireAppropriateTime(_deadline) payable{\n        uint value = msg.value;\n        Promise memory promise = Promise({\n            id: promisesCount,\n            owner: msg.sender,\n            deadline: _deadline,\n            etherMount: value,\n            pricing: value,\n            finished: false,\n            lat: _lat,\n            lng: _lng\n        });\n        promises.push(promise);\n        setToPromise(promise.id, value);\n        promisesCount++;\n        /* createdPromise(promise.owner, promise.deadline); */\n    }\n\n    function getPromise(uint _id) public returns(uint id, address owner, uint etherMount, bool finished, uint pricing) {\n        Promise memory promise = promises[_id];\n        return(promise.id, promise.owner, promise.etherMount, promise.finished, promise.pricing);\n    }\n\n    function betToPromise(uint _id) public requireEqualToPricing(_id) requireUserNotBetYet(_id) payable {\n        Promise storage promise = promises[_id];\n        uint value = msg.value;\n        promise.etherMount += value;\n        userBetToPromise[msg.sender][_id] = value;\n    }\n\n    function checkBetToPromise(uint _id) public returns(uint){\n        return(userBetToPromise[msg.sender][_id]);\n    }\n\n    function setAchievedToPromise(uint _id, int _lat, int _lng) public requireBeforeDeadline(_id) requireCorrectLocation(_id, _lat, _lng){\n        userAcheivedToPromise[msg.sender][_id] = true;\n    }\n\n\n\n    function witdrawBet(uint _id) requireAlreadyFinised(_id) {\n        require(userBetToPromise[msg.sender][_id] > 0);\n        require(userAcheivedToPromise[msg.sender][_id] == true);\n        uint betAmount = userBetToPromise[msg.sender][_id];\n        userBetToPromise[msg.sender][_id] = 0;\n        if(!msg.sender.send(betAmount)) {\n            throw;\n        }\n    }\n\n\n}\n",
  "sourcePath": "/Users/Oyana/workspace/project/TimeIsMoney/contracts/TimeIsMoney.sol",
  "compiler": {
    "name": "solc",
    "version": "0.4.21+commit.dfe3193c.Emscripten.clang"
  },
  "schemaVersion": "2.0.0",
  "updatedAt": "2018-05-07T03:24:24.940Z"
}